S00E00004D595052494A2E737265633B
S31508008000D040002051A200086DA2000871A2000805
S3150800801075A2000879A200087DA2000800000000E9
S3150800802000000000000000000000000081A2000817
S3150800803085A200080000000089A200088DA2000899
S3150800804091A2000895A2000899A200089DA200081E
S31508008050A1A20008A5A20008A9A20008ADA20008CE
S31508008060B1A20008B5A20008B9A20008BDA200087E
S31508008070C1A20008C5A20008C9A20008CDA200082E
S31508008080D1A20008D5A20008D9A20008DDA20008DE
S31508008090E1A20008E5A20008E9A20008EDA200088E
S315080080A0F1A20008F5A20008F9A20008FDA200083E
S315080080B07599000805A3000809A300080DA3000880
S315080080C011A3000815A3000819A300081DA300089A
S315080080D021A3000825A3000829A300082DA300084A
S315080080E031A3000835A3000839A3000800000000E2
S315080080F00000000000000000000000000000000072
S3150800810000000000000000003DA3000841A300088D
S3150800811045A3000849A300084DA3000851A3000879
S3150800812055A3000859A300085DA3000861A3000829
S3150800813065A3000869A300086DA3000871A30008D9
S3150800814075A3000879A300087DA3000881A3000889
S3150800815080B5DFF8100C0078002800F09180DFF871
S31508008160040C00210170DFF8000C0078002840F0AC
S315080081708780DFF8F80B0078012840F08180DFF867
S31508008180F00B0068401CDFF8E81B0860DFF8E00B1E
S31508008190006800F095FFDFF8DC0B007800286FD147
S315080081A0DFF8D40B0068401CDFF8CC1B0860DFF84A
S315080081B0CC0B007800282AD1DFF8C40B0068DFF85A
S315080081C0B81B0968884257D1DFF8AC0B002101605B
S315080081D0DFF8B00B006800284ED0DFF8A00B0121AD
S315080081E00170002001F0DFF8DFF89C0B0068401CE6
S315080081F0DFF8941B0860DFF8900B0068DFF88C1B2B
S31508008200884239D3DFF8800B0021016034E0DFF8BB
S315080082106C0B007801282FD1DFF8680B0068DFF8AF
S31508008220581B0968884227D1DFF8500B00210170D6
S31508008230DFF8440B00210160DFF8540B80780FF655
S31508008240F41131F8100001F0AEF8DFF8480B0068B9
S31508008250401CDFF8401B0860DFF8380B0068DFF8C1
S315080082602C1B884203D3DFF82C0B00210160DFF8B2
S31508008270240B006800F0B3FFDFF81C0B0121017026
S3150800828001BD80B5DFF8100B0078002841D0DFF873
S31508008290080B00210170DFF8D40A007800282AD0DC
S315080082A0DFF8D80A0078002812D1DFF8D40A006867
S315080082B0DFF8C41A0968421A02210D2000F095FE5B
S315080082C0DFF8C00A026803210D2000F08EFE20E0C8
S315080082D0DFF8AC0A026802210D2000F086FEDFF8FE
S315080082E0A40A0068DFF8901A0968421A03210D20CB
S315080082F000F07BFE0DE0DFF8880A02680221042000
S3150800830000F073FEDFF87C0A02680321042000F0FF
S315080083106CFE01BD80B5DFF8500A0078012871D0DF
S31508008320DFF8780A007800286CD0DFF8740ADFF8DE
S31508008330741A0160DFF8700A5FF044310160DFF8F3
S315080083406C0A00210160DFF8680ADFF8681A096814
S315080083500180DFF8580A01210160DFF8540A008815
S315080083608004800CDFF8481A0880DFF8440A008881
S3150800837043F6FF71884217D1DFF8240ADFF8381A66
S315080083800160DFF8240A5FF033310160DFF82C0A58
S3150800839000210160DFF8280A43F6FF710160DFF863
S315080083A01C0A012101602DE0DFF8F409DFF8081A3C
S315080083B00160DFF8F4095FF033310160DFF8FC098A
S315080083C000210160DFF8F809DFF8E419098801607F
S315080083D0DFF8E8090121016049F6404001F0BAF8E2
S315080083E0DFF8E00900210160DFF8C409008880F49D
S315080083F07C5090F0FF00DFF8C8190860DFF8C40960
S315080084000121016001BD10B5DFF8BC090088000430
S3150800841000F10F84DFF8B009008801287DD1DFF864
S31508008420A809008801F036F90400E4B2022C30D11C
S31508008430DFF85C09827801210C2000F031FFDFF8B3
S315080084405009D0F8032002210C2000F0CEFDDFF8F9
S315080084504009D0F8072003210C2000F0C6FDDFF8FC
S315080084606C0900780A21DFF8682901FB0020418899
S31508008470C9B2DFF8580900780A22DFF8543902FB36
S3150800848000300088C0B200F00EFD012000F0F4FCB8
S31508008490CCE3E4B2032C40F0C983DFF8F408D0F843
S315080084A00300DFF8DC180860DFF8E408D0F80700F6
S315080084B0DFF8D0180860DFF8B808006800F000FE9A
S315080084C0DFF8CC0882780121042000F0E9FEDFF805
S315080084D09C0802780021072000F07BFDDFF894084D
S315080084E00078002816D1DFF8AC08006800F077FE9F
S315080084F0DFF88C0802680221042000F076FDDFF818
S31508008500840802680321042000F06FFDDFF888085C
S315080085100121017001F0C1F988E3DFF8AC08008891
S31508008520022840F00881DFF840080078012840F06A
S315080085307D83DFF89408008801F0ACF80400E4B203
S31508008540042C40F07383DFF88408007801283BD2B6
S31508008550DFF83C088078DFF8741809780A22DFF813
S31508008560703802FB01310989491C90FBF1F201FBC5
S315080085701200DFF860180870DFF858080078DFF88E
S315080085804C1809780A22DFF8483802FB01310989B4
S3150800859080B2884280F0B880DFF8F4078078DFF888
S315080085A02C1809780A22DFF8283802FB0131C98815
S315080085B00818DFF8DC178870DFF8D40782780121FD
S315080085C00C2000F06DFE9FE0DFF800080078062812
S315080085D04DD2DFF8BC07D0F80300DFF8F0170978AA
S315080085E00A22DFF8EC3702FB01318988B0FBF1F289
S315080085F001FB1200DFF8D41709780A22DFF8D03712
S3150800860002FB0131C988B0FBF1F00A21B0FBF1F297
S3150800861001FB1200DFF8BC170870DFF8B80700780E
S31508008620DFF8A81709780A22DFF8A43702FB013118
S31508008630098980B2884267D2DFF85407D0F8030068
S31508008640DFF8881709780A22DFF8843702FB013138
S31508008650C9880818DFF83817C1F80300DFF83007AB
S31508008660D0F8032002210C2000F0BFFC4CE0DFF814
S315080086702007D0F80700DFF8541709780A22DFF830
S31508008680503702FB01318988B0FBF1F201FB120079
S31508008690DFF8381709780A22DFF8343702FB013188
S315080086A0C988B0FBF1F00A21B0FBF1F201FB120018
S315080086B0DFF820170870DFF81C070078DFF80C17BA
S315080086C009780A22DFF8083702FB0131098980B2E6
S315080086D0884219D2DFF8B806D0F80700DFF8EC169A
S315080086E009780A22DFF8E83602FB0131C98808183A
S315080086F0DFF89C16C1F80700DFF89406D0F80720C3
S3150800870003210C2000F071FCDFF8C00600780A216E
S31508008710DFF8BC2601FB00204188C9B2DFF8AC06A9
S3150800872000780A22DFF8A83602FB00300088C0B2BB
S3150800873000F0B9FB7AE2DFF890060088042840F0DA
S31508008740EA80DFF824060078012840F06F82DFF817
S315080087507806008800F09EFF0400E4B2052C40F07D
S315080087606582DFF868060078012831D2DFF820062E
S315080087708078DFF8581609780A22DFF8543602FBA3
S3150800878001310989491C90FBF1F201FB1200DFF85F
S3150800879044160870DFF83C0600780128C0F0A4806B
S315080087A0DFF8EC058078DFF8241609780A22DFF866
S315080087B0203602FB0131C988401ADFF8D4158870C3
S315080087C0DFF8CC05827801210C2000F069FD8BE0EA
S315080087D0DFF8F8050078062843D2DFF8B405D0F8A4
S315080087E00300DFF8E81509780A22DFF8E43502FB0A
S315080087F001318988B0FBF1F201FB1200DFF8CC15D4
S3150800880009780A22DFF8C83502FB0131C988B0FBAE
S31508008810F1F00A21B0FBF1F201FB1200DFF8B41502
S315080088200870DFF8B005007801285DD3DFF8600529
S31508008830D0F80300DFF8941509780A22DFF8903596
S3150800884002FB0131C988401ADFF84415C1F8030054
S31508008850DFF83C05D0F8032002210C2000F0C5FB08
S3150800886042E0DFF82C05D0F80700DFF86015097834
S315080088700A22DFF85C3502FB01318988B0FBF1F288
S3150800888001FB1200DFF8441509780A22DFF84035A3
S3150800889002FB0131C988B0FBF1F00A21B0FBF1F205
S315080088A001FB1200DFF82C150870DFF828050078A0
S315080088B0012819D3DFF8D804D0F80700DFF80C151B
S315080088C009780A22DFF8083502FB0131C988401AFF
S315080088D0DFF8BC14C1F80700DFF8B404D0F80720A5
S315080088E003210C2000F081FBDFF8E00400780A2160
S315080088F0DFF8DC2401FB00204188C9B2DFF8CC048C
S3150800890000780A22DFF8C83402FB00300088C0B2BB
S3150800891000F0C9FA8AE1DFF8B0040088402822D1BD
S31508008920DFF844040078012840F08081DFF89804D5
S31508008930008800F0AFFE0400DFF8900400780A21F2
S31508008940DFF88C2401FB00204188C9B2DFF87C04DB
S3150800895000780A22DFF8783402FB00300088C0B2BB
S3150800896000F0A1FA62E1DFF860040088202822D12D
S31508008970DFF8F4030078012840F05881DFF848044E
S31508008980008800F087FE0400DFF8400400780A211A
S31508008990DFF83C2401FB00204188C9B2DFF82C042B
S315080089A000780A22DFF8283402FB00300088C0B2BB
S315080089B000F079FA3AE1DFF810040088102862D14D
S315080089C0DFF8A4030078002840F03081DFF89C0324
S315080089D00078002841D1DFF8BC0300210160DFF8E8
S315080089E0A80300210160DFF8880300210160DFF891
S315080089F08003006800F064FBDFF87803007800283D
S31508008A001ED1DFF87C030068002835D0DFF8800324
S31508008A1080780FF2202131F8100000F0C4FCDFF84E
S31508008A2074030068401CDFF86C130860DFF8640301
S31508008A30006800F0D4FBDFF83403012101701BE065
S31508008A40DFF84C0380780FF2EC1131F8100000F0D3
S31508008A50AAFCC648012101700EE0C4480078012826
S31508008A6003D1C2480221017006E0C04800780228F6
S31508008A7002D1BE4801210170BC48027800210720B6
S31508008A8000F0A7FAD2E0DFF840030088082843D1AF
S31508008A90B5480078002840F0C980B4480078002816
S31508008AA000F0C480B14800210170B0480278002166
S31508008AB0072000F08EFAB04800210160B548002171
S31508008AC00160B14800210160A948006800F0F8FA81
S31508008AD0B048006800F083FBA6480078002817D144
S31508008AE0AB48D0F803200221042000F07EFA0022C9
S31508008AF002210D2000F079FAA548D0F807200321B5
S31508008B00042000F072FA002203210D2000F06DFA0D
S31508008B10002000F048FC89E0AB480088802850D146
S31508008B2091480078002840F0818090480078012814
S31508008B307CD090480078002878D08E4800210170B3
S31508008B408C48007800F05DFD884800210170874850
S31508008B5002780021072000F03CFA874800210160CE
S31508008B608C4800210160884800210160804800681F
S31508008B7000F0A6FA8748006800F031FB844882783E
S31508008B800121042000F08CFB7A48007800284DD19A
S31508008B907F48D0F803200221042000F026FA00229C
S31508008BA002210D2000F021FA7948D0F80720032188
S31508008BB0042000F01AFA002203210D2000F015FA0D
S31508008BC034E0814800884FF4807188422ED1664887
S31508008BD0007800282AD165480078012826D06548FB
S31508008BE00078012822D06348012101706148007885
S31508008BF000F007FD5D48002101705C4802780021FD
S31508008C00072000F0E6F95C48002101606148002170
S31508008C1001605D48002101605548006800F050FA7F
S31508008C205B4882780121042000F03AFB664800215F
S31508008C30018010BD00000100030007000F001F009F
S31508008C403F007F00FF00FF01FF03FF07FF0FFF1F25
S31508008C50FF3FFF7F80B54FF400415FF0006000F0F2
S31508008C6074FE00F053FB00F0AEFE00F0D6F800F0FC
S31508008C70F9FE00F091F900F022F900F0F7FD4448FA
S31508008C80D0F803003E4908604148D0F807003D493E
S31508008C9008603948002101603E48002101603A48D1
S31508008CA0002101603248002101603048002101702E
S31508008CB032480021017048480021017036480021D9
S31508008CC0017044480021017000F06CFC294800211D
S31508008CD001702848007800F094FC244802780021A6
S31508008CE0072000F076F92248006800F0E9F92948DB
S31508008CF0006800F074FA264882780121042000F002
S31508008D00CFFA1C480078002815D11D4802680221B0
S31508008D10042000F06AF9002202210D2000F065F90E
S31508008D20184802680321042000F05FF90022032195
S31508008D300D2000F05AF9294829490968016000F010
S31508008D40F9FE00F0A2FEFFF75EFBFFF701FAFFF758
S31508008D5098FAFFF7DFFA214800682149096888422E
S31508008D60E9D1F8E7C9000020C6000020C1000020AC
S31508008D70A8000020C80000209C000020C200002097
S31508008D809400002098000020A4000020A08601007E
S31508008D9074000020A0000020C4000020CA000020A3
S31508008DA004180140444444000018014098812142B7
S31508008DB0BE00002008180140333333008081214269
S31508008DC00C18014084812142B6000020C70000200B
S31508008DD000000020C5000020C3000020AC000020D1
S31508008DE0B000002080B55F4AC0B210605E4800221D
S31508008DF002605E48012202605D48C9B201604FF414
S31508008E007A6000F0A7FB5948002101605648012105
S31508008E10016054480121016001BD80B55448FF2115
S31508008E200160524800210160524800F093FB382146
S31508008E300020FFF7D7FF49F6404000F08BFB0C21D6
S31508008E400020FFF7CFFF49F6404000F083FB0121E1
S31508008E500020FFF7C7FF49F6404000F07BFB1421CE
S31508008E600020FFF7BFFF49F6404000F073FB0221E0
S31508008E700020FFF7B7FF01BD80B550F00C01C9B25D
S31508008E800020FFF7AFFF01BD10B50024040005E080
S31508008E902178C9B20120FFF7A5FF641C94F90000E8
S31508008EA00028F5D110BD80B5C9B2334A895C41188E
S31508008EB051F08001C9B20020FFF794FF01BD10B53B
S31508008EC000240BE000212000C0B2FFF7ECFF24A02D
S31508008ED0FFF7DAFF294800F03DFB641CE4B2142CC6
S31508008EE0F0D300240BE001212000C0B2FFF7DBFF1E
S31508008EF01BA0FFF7C9FF214800F02CFB641CE4B255
S31508008F00142CF0D300240BE002212000C0B2FFF796
S31508008F10CAFF13A0FFF7B8FF184800F01BFB641C34
S31508008F20E4B2142CF0D300240BE003212000C0B2D5
S31508008F30FFF7B9FF0AA0FFF7A7FF104800F00AFBE2
S31508008F40641CE4B2142CF0D3002404E049F6404033
S31508008F5000F000FB641CE4B2502CF7D310BD0000EF
S31508008F602D000000A4812142A08121429C8121423A
S31508008F700C1401400071020070000020801A0600DF
S31508008F8010B51400C9B2C0B2FFF78DFF2100C9B2EF
S31508008F900120FFF727FF10BD38B540210020FFF755
S31508008FA021FF00240FE0EDB2E4B20FF2483010EBD7
S31508008FB0C400295CC9B20120FFF714FF6D1CEDB28D
S31508008FC0082DF0D3641CE4B2032C01D20025F6E781
S31508008FD031BD10B51400C9B2C0B2FFF764FF210055
S31508008FE0C9B20120FFF7FEFE10BDF8B504000D005A
S31508008FF016004FF46160B6FBF0F7FFB20A2097FB44
S31508009000F0F100FB117010F13002D2B22900C9B29A
S315080090102000C0B2FFF7B4FF3A222900C9B2601C8B
S31508009020C0B2FFF7ADFF3C20B6FBF0F03C21B0FB29
S31508009030F1F201FB1207FFB20A2097FBF0F010F1DC
S315080090403002D2B22900C9B2A01CC0B2FFF798FFFD
S31508009050FFB20A2097FBF0F100FB117010F1300205
S31508009060D2B22900C9B2E01CC0B2FFF789FF3A2282
S315080090702900C9B2201DC0B2FFF782FF3C20B6FB0B
S31508009080F0F100FB1167FFB20A2097FBF0F010F130
S315080090903002D2B22900C9B2601DC0B2FFF770FF14
S315080090A0FFB20A2097FBF0F100FB117010F13002B5
S315080090B0D2B22900C9B2A01DC0B2FFF761FFF1BD47
S315080090C038B504004FF46160B4FBF0F042F2107159
S315080090D0B0FBF1F201FB1205EDB24FF47A70B5FB65
S315080090E0F0F00A21B0FBF1F201FB120010F1300298
S315080090F0D2B200210A20FFF743FF6420B5FBF0F047
S315080091000A21B0FBF1F201FB120010F13002D2B2D3
S3150800911000210B20FFF734FF0A20B5FBF0F00A21E7
S31508009120B0FBF1F201FB120010F13002D2B20021BD
S315080091300C20FFF725FF0A20B5FBF0F100FB1150C4
S3150800914010F13002D2B200210D20FFF719FF3A22A2
S3150800915000210E20FFF714FF3C20B4FBF0F03C2161
S31508009160B0FBF1F201FB1205EDB20A2095FBF0F017
S3150800917010F13002D2B200210F20FFF701FFEDB245
S315080091800A2095FBF0F100FB115010F13002D2B223
S3150800919000211020FFF7F4FE3A2200211120FFF7E4
S315080091A0EFFE3C20B4FBF0F100FB1145EDB20A20BE
S315080091B095FBF0F010F13002D2B200211220FFF731
S315080091C0DFFEEDB20A2095FBF0F100FB115010F11D
S315080091D03002D2B200211320FFF7D2FE31BD70B59E
S315080091E006000F24012542F21070B6FBF0F0C0B25B
S315080091F00A2190FBF1F201FB120010F13002D2B203
S315080092002900C9B22000C0B2FFF7BAFE4FF47A703F
S31508009210B6FBF0F0C0B20A2190FBF1F201FB120096
S3150800922010F13002D2B22900C9B2601CC0B2FFF7F1
S31508009230A7FE6420B6FBF0F0C0B20A2190FBF1F25B
S3150800924001FB120010F13002D2B22900C9B2A01CEB
S31508009250C0B2FFF795FE0A20B6FBF0F0C0B20A21AD
S3150800926090FBF1F201FB120010F13002D2B2290094
S31508009270C9B2E01CC0B2FFF783FE0120B6FBF0F0CE
S31508009280C0B20A2190FBF1F201FB120010F1300284
S31508009290D2B22900C9B2201DC0B2FFF771FE70BD57
S315080092A070B504000D0016000A20B6FBF0F0C0B237
S315080092B00A2190FBF1F201FB120010F13002D2B242
S315080092C02900C9B22000C0B2FFF75AFE0120B6FB3A
S315080092D0F0F0C0B20A2190FBF1F201FB120010F186
S315080092E03002D2B22900C9B2601CC0B2FFF748FEEC
S315080092F070BD000010181C1E1C1810000012121257
S315080093001212000000001E1E1E1E000038B50024A2
S3150800931021E024B20FF2F40050F834500121280C51
S31508009320294A52F8200000F00DFC2800ADF800008C
S3150800933024B20FF2D80010EBC40000798DF80300B0
S3150800934003208DF8020000A9280C204A52F82000B4
S3150800935000F01CFC641CA4B2292CDAD31C48012199
S3150800936001601C48012101601B48012101601B485E
S31508009370012101601A48002101601A480021016094
S315080093801948002101601948002101601848002188
S31508009390016018480021016017480021016017483C
S315080093A00021016031BD1649164A0A6016495FF068
S315080093B033320A60094900220A60104980B20860FF
S315080093C00648012101607047ACA1000890A1000879
S315080093D0808121428481214298812142B0812142A3
S315080093E0948121429C812142A0812142A48121426B
S315080093F0A8812142AC8121420C1401400C1801407D
S3150800940004180140333333000018014001000100FD
S3150800941010000000020001001000000020000100FA
S31508009420100000004000010010000000800001004C
S3150800943010000000000101001000000000020100F9
S3150800944010000000000401001000000000080100E0
S3150800945010000000001001001000000001000200CA
S3150800946004000000020002000400000004000200DC
S3150800947004000000080002000400000010000200BA
S315080094800400000020000200040000004000020062
S315080094900400000080000200040000000001020031
S315080094A00400000001000300100000000200030091
S315080094B0100000000400030010000000080003006C
S315080094C01000000010000300100000002000030038
S315080094D01000000040000300100000008000030098
S315080094E01000000001000400100000000200040043
S315080094F0100000000400040010000000080004002A
S3150800950010000000100004001000000020000400F5
S315080095101000000040000400100000008000040055
S315080095201000000000010400100000000002040002
S3150800953010000000000404001000000000080400E9
S3150800954010000000001004001000000000200400B5
S315080095501000000070B100BF00BF00BF00BF00BF11
S3150800956000BF00BF00BF00BF00BF00BF00BF00BFF5
S31508009570401EF0D1704710B450F8041B81B1026840
S315080095801218001D50F8043BDC0744BFA9F101047A
S31508009590E31852F8044B43F8044B091FF9D1EBE7DB
S315080095A010BC7047664800210170664800210170AA
S315080095B0654800210170704780B5C0B201281FD1E7
S315080095C000210020FFF76FFC0FF28010FFF75CFC0C
S315080095D001210020FFF767FC0FF28810FFF754FC03
S315080095E002210020FFF75FFC0FF29010FFF74CFCFA
S315080095F003210020FFF757FC0FF29810FFF744FCF1
S3150800960001BD80B5C0B2002820D100210020FFF797
S315080096104AFC0FF29810FFF737FC01210020FFF7EC
S3150800962042FC0FF2A010FFF72FFC02210020FFF7E3
S315080096303AFC0FF2A810FFF727FC03210020FFF7DA
S3150800964032FC0FF2B010FFF71FFC22E0C0B201286F
S315080096501FD100210020FFF726FC0FF2B010FFF7FC
S3150800966013FC01210020FFF71EFC0FF2B810FFF7CC
S315080096700BFC02210020FFF716FC0FF2C010FFF7C3
S3150800968003FC03210020FFF70EFC0FF2C810FFF7BA
S31508009690FBFB01BD80B52A49097800290DD180B2A6
S315080096A0012849D126480121017026480021017068
S315080096B00120FFF781FF022040E080B201280ED189
S315080096C01F48002101701F48002101701E480078BC
S315080096D0FFF797FF0020FFF7CFFB03202EE080B2AD
S315080096E040280ED117480078012805D31548007878
S315080096F0401E1449087002E012480A21017006202B
S315080097001CE080B220280DD10E480078401C0D4977
S3150800971008700C4800780B2802D30A48002101700B
S3150800972007200BE080B2022801D1042006E080B2AF
S31508009730042801D1052001E00148007802BD000097
S31508009740C6000020C7000020C80000204D454E5521
S31508009750202020205B54494D45525D2020202020A2
S3150800976000000000204C4F54204E554D2E203D2021
S3150800977030302F31342020200000000020204F4EAA
S315080097802054494D45203D20303A30303A3030207B
S3150800979000000000204F46462054494D45203D20F4
S315080097A0303A30303A3030200000000054494D45F8
S315080097B0522020202020303030303A30303A3030B5
S315080097C0000000004C4F54203030202052455045B0
S315080097D04154203030303030000000004F4E2020F9
S315080097E0303A30303A30302020303A30303A303063
S315080097F0000000004F464620303A30303A303020DC
S3150800980020303A30303A303000000000414C5741A1
S31508009810595320202020303030303A30303A30301A
S31508009820000000004C4F542030302020524550454F
S315080098304154204E4F4E4520000000002020202095
S31508009840202020202020202020202020202020200A
S31508009850000000002020202020414C574159532069
S315080098604F4E2020202020200000000000B589B09F
S31508009870202100A800F038FA202200A90D4800F09F
S315080098804DFA0C480078A12805D020220FF22801AD
S31508009890084800F043FA09B000BD00B589B0202297
S315080098A0044900A800F03AFA202100A800F001FABD
S315080098B009B000BD74000020A100001E0000001EB3
S315080098C0000000000000000000000000000000008A
S315080098D000000000000000001F4908431F490860F7
S315080098E0704710B4002100220F2390F90340002C82
S315080098F01ED01A49096811F4E061D1F5E061090A38
S31508009900D1F10402CB404178914082781A40114344
S3150800991009010278124BD15401784911114A0123E1
S31508009920007810F01F0013FA00F042F821000AE050
S31508009930017849110C4A0123007810F01F0013FA28
S3150800994000F042F8210010BC7047084A114008434D
S3150800995007490860704700000000FA050CED00E0B2
S3150800996000E400E000E100E080E100E080FFFF1F86
S3150800997008ED00E080B5344800680A3032490860CE
S31508009980314800684FF4FA71B0FBF1F201FB12009E
S31508009990002805D12D48007890F001002B49087061
S315080099A0294800684FF47A71B0FBF1F201FB120006
S315080099B0002802D126480121017001215FF080406C
S315080099C000F020FA01BD00B585B0214800210170DC
S315080099D01E48002101701C48002101600121012058
S315080099E000F0C0F86320ADF8080041F61F40ADF856
S315080099F004000020ADF80A000020ADF8060001A911
S31508009A005FF0804000F092F9012201215FF080406A
S31508009A1000F0ECF901215FF0804000F0D9F94FF42D
S31508009A20E060FFF759FF1C208DF8000000208DF834
S31508009A30010000208DF8020001208DF8030000A81F
S31508009A40FFF74FFF05B000BDB0000020CA00002098
S31508009A50C90000203148006880B2C043C005C00D67
S31508009A6080B2704780B500F010F82D4800210180BB
S31508009A702C48002101802C48002101802B48002118
S31508009A8001802B480021018001BD80B5FFF7E2FF68
S31508009A902349088022480088002815D122480088D2
S31508009AA000280AD021480088022803D31D481E49E9
S31508009AB0098801801C48002101801C48002101807A
S31508009AC01B480021018027E019480088002823D177
S31508009AD01348008814490988884216D11348008813
S31508009AE0401C1249088011480088512810D30E4896
S31508009AF0008850F400400B4908800D480949098838
S31508009B0001800A480021018002E0084800210180FE
S31508009B10054803490988018001BD00000810014075
S31508009B20B4000020B6000020B8000020BA000020CB
S31508009B30BC00002002484AF6AA21016070470000CE
S31508009B400030004049B2002905D00E49096808438B
S31508009B500C49086005E00B49096831EA0000094923
S31508009B600860704749B2002905D0074909680843C3
S31508009B700549086005E00449096831EA0000024918
S31508009B8008607047181002401C100240F0B400220A
S31508009B900026002400250023002791F803C01CF0A6
S31508009BA00F0C624691F803C05FEACC6C02D591F9B6
S31508009BB002301A430B781B0623D00368002407E0FB
S31508009BC091F90350482D02D10125A5400561641C71
S31508009BD0082C15D20125A5400E882E40AE42F6D196
S31508009BE0A5000F2616FA05F7BB4312FA05F52B430F
S31508009BF091F90350282DE3D10125A5404561E6E7F3
S31508009C0003600B884FF48074A34228D3436800246A
S31508009C1022E0012514F10806B5400E882E40AE4212
S31508009C2019D1A5000F2616FA05F7BB4312FA05F552
S31508009C302B4391F90350282D04D1012514F1080668
S31508009C40B540456191F90350482D04D1012514F119
S31508009C500806B5400561641C082CDAD34360F0BCDD
S31508009C60704750F8041B61B150F8042BD30744BF62
S31508009C70A9F101039A18002342F8043B091FFAD1F7
S31508009C80EFE7704780B523480421017000F0BEF85D
S31508009C90342000F03EF9204800F0C3F81D4908704A
S31508009CA01C4890F90000042801D1012000E000209A
S31508009CB002BDF8B504000D00FFF7E4FF012812D134
S31508009CC0154FADB2AE08002509E0ADB254F825101F
S31508009CD0380000F0D8F80F4908703F1D6D1CADB26A
S31508009CE0B6B2B542F1D3F1BD38B504000D0000F0A7
S31508009CF08DF8094AADB2A908002005E080B21368BC
S31508009D0044F82030121D401C80B289B28842F5D32F
S31508009D1031BD0000C00000200078000810B504001E
S31508009D20200000F031F9200010BD00000022038851
S31508009D301A001D4B98420ED0214B98420BD0B0F119
S31508009D40804F08D0194B984205D0194B984202D03B
S31508009D50184B984204D14FF68F731A404B881A4312
S31508009D60154B984207D0154B984204D04FF6FF433F
S31508009D701A40CB881A4302808A8882850A88028517
S31508009D80094A90420BD00E4A904208D00D4A90429A
S31508009D9005D00D4A904202D00C4A904201D1097A68
S31508009DA00186012181827047002C01400004004091
S31508009DB000080040000C004000100040001400405D
S31508009DC00034014000400140004401400048014081
S31508009DD049B2002904D0018851F00101018004E04C
S31508009DE001884FF6FE7211400180704752B2002A70
S31508009DF003D082891143818103E0828932EA010115
S31508009E008181704789B2C94301827047DFF83401FE
S31508009E10DFF834110160DFF82C01DFF8301101603A
S31508009E20704738B5040004255FF4302000F096F832
S31508009E3005006DB2042D23D1DFF81401006850F037
S31508009E400200DFF80C110860DFF808010460DFF88B
S31508009E500001006850F04000DFF8F41008605FF475
S31508009E60302000F07BF805006DB2052D08D0DFF82C
S31508009E70E000006841F6FD710840DFF8D41008607C
S31508009E80280040B232BD70B582B005000C00042629
S31508009E90002000904FF4005000F060F8060076B2FB
S31508009EA0042E33D1DFF8A800006850F00100DFF86F
S31508009EB0A01008602C804FF4005000F04FF8060000
S31508009EC076B2042E16D1A81C0090200C00990880A2
S31508009ED04FF4005000F042F8060076B2052E15D071
S31508009EE0DFF86C00006841F6FE710840DFF8601084
S31508009EF008600BE076B2052E08D0DFF8540000683B
S31508009F0041F6FE710840DFF848100860300040B29C
S31508009F1076BD11490860704704200F490968C907CA
S31508009F2001D501200CE00C480068400701D5022045
S31508009F3006E009480068C00601D5032000E00420B1
S31508009F4040B270470420024023016745AB89EFCD34
S31508009F5010200240142002400C20024038B50400AC
S31508009F600425FFF7D9FF050003E0FFF7D5FF050035
S31508009F70641E6DB2012D01D1002CF6D1002C00D142
S31508009F800525280040B232BD4AB38B0707D0521EBA
S31508009F9011F8013B00F8013B21D08B07F7D1830765
S31508009FA01ED1103A07D330B4B1E83810103AA0E8F9
S31508009FB03810F9D230BC530724BFB1E80810A0E81E
S31508009FC0081044BF51F8043B40F8043BD20724BFAD
S31508009FD031F8022B20F8022B44BF0B780370704728
S31508009FE0083A07D3B1E80810083A40F8043B40F8A5
S31508009FF004CBF7D25307E4E780B55D48006850F014
S3150800A00001005B4908605B4800685B49084059499C
S3150800A0100860574800685949084055490860544837
S3150800A020006830F48020524908605248006830F4CD
S3150800A030FE00504908604E48006830F0A0504C4970
S3150800A04008604F485FF47F0101604E4800210160B7
S3150800A05000F001F801BD80B500F001F801BD82B03D
S3150800A06000200190002000904148006850F480309C
S3150800A0703F4908603E48006810F400300090019897
S3150800A080401C01900098002803D10198B0F5A06FF4
S3150800A090F0D137480068800302D50120009001E01E
S3150800A0A000200090009801285FD13748006850F0DA
S3150800A0B01000354908603448006880088000324935
S3150800A0C008603148006850F002002F4908602948A6
S3150800A0D02849096801602748264909680160254812
S3150800A0E0006850F4806023490860264800682749BC
S3150800A0F00840244908602348006840F4833050F03B
S3150800A1004400204908601A48006850F080601849E1
S3150800A1100860174800680001FBD51648006830F447
S3150800A1207C10144908601348006850F4E810114977
S3150800A13008600F48006850F080700D4908600C48A8
S3150800A14000688001FBD50B48006880088000094933
S3150800A15008600848006850F002000649086005488B
S3150800A160006810F00C000828F9D102B0704700000A
S3150800A17000100240041002400000FFF0FFFFF6FE48
S3150800A180081002402C1002400020024000F0FEFF9A
S3150800A19000080140000C0140001001400014014075
S3150800A1A000180140001C0140002001400400000086
S3150800A1B00800000010000000200000004000000019
S3150800A1C0800000000001000010B5084979441C31E0
S3150800A1D0074C7C441A34A14206D0081D0A68511857
S3150800A1E088470146A142F8D110BD00BF080000000B
S3150800A1F0280000006FFAFFFF5800000074000020D6
S3150800A2000000000073F3FFFF7400000078010000EF
S3150800A21000000020000000000120C046002801D0F0
S3150800A220FFF7D2FF0020FEF715FD00F000F880B515
S3150800A23000F002F800BF00000746384600F002F8B2
S3150800A240FBE7000001491820ABBEFBE72600020029
S3150800A2500148804701480047F99F000861A20008A5
S3150800A260C046C046C046C046FFF7D6FFFFF7FEBF4A
S3150800A270FFF7FEBFFFF7FEBFFFF7FEBFFFF7FEBF04
S3150800A280FFF7FEBFFFF7FEBFFFF7FEBFFFF7FEBFF4
S3150800A290FFF7FEBFFFF7FEBFFFF7FEBFFFF7FEBFE4
S3150800A2A0FFF7FEBFFFF7FEBFFFF7FEBFFFF7FEBFD4
S3150800A2B0FFF7FEBFFFF7FEBFFFF7FEBFFFF7FEBFC4
S3150800A2C0FFF7FEBFFFF7FEBFFFF7FEBFFFF7FEBFB4
S3150800A2D0FFF7FEBFFFF7FEBFFFF7FEBFFFF7FEBFA4
S3150800A2E0FFF7FEBFFFF7FEBFFFF7FEBFFFF7FEBF94
S3150800A2F0FFF7FEBFFFF7FEBFFFF7FEBFFFF7FEBF84
S3150800A300FFF738BBFFF7FEBFFFF7FEBFFFF7FEBF3D
S3150800A310FFF7FEBFFFF7FEBFFFF7FEBFFFF7FEBF63
S3150800A320FFF7FEBFFFF7FEBFFFF7FEBFFFF7FEBF53
S3150800A330FFF7FEBFFFF7FEBFFFF7FEBFFFF7FEBF43
S3150800A340FFF7FEBFFFF7FEBFFFF7FEBFFFF7FEBF33
S3150800A350FFF7FEBFFFF7FEBFFFF7FEBFFFF7FEBF23
S3150800A360FFF7FEBFFFF7FEBFFFF7FEBFFFF7FEBF13
S3150800A370FFF7FEBFFFF7FEBFFFF7FEBFFFF7FEBF03
S3150800A380FFF7FEBF0D000100000001000E000C00E3
S3150800A3900200A08C100E09000E000200100E5802D2
S3150800A3A005000F00020058023C00090011000200D7
S3150800A3B03C000A000500120002000A00010009001C
S3150800A3C00C000300A08C100E09000E000300100EEE
S3150800A3D0580205000F00030058023C00090011004E
S3150800A3E003003C000A000500120003000A000100F1
S30D0800A3F00900000000401454A6
S7050800A261EF
